{
  "contractName": "Project",
  "abi": [
    {
      "inputs": [
        {
          "internalType": "address payable",
          "name": "projectStarter",
          "type": "address"
        },
        {
          "internalType": "string",
          "name": "projectTitle",
          "type": "string"
        },
        {
          "internalType": "string",
          "name": "projectDesc",
          "type": "string"
        },
        {
          "internalType": "uint256",
          "name": "fundRaisingDeadline",
          "type": "uint256"
        },
        {
          "internalType": "uint256",
          "name": "goalAmount",
          "type": "uint256"
        }
      ],
      "stateMutability": "nonpayable",
      "type": "constructor"
    },
    {
      "anonymous": false,
      "inputs": [
        {
          "indexed": false,
          "internalType": "address",
          "name": "recipient",
          "type": "address"
        }
      ],
      "name": "CreatorPaid",
      "type": "event"
    },
    {
      "anonymous": false,
      "inputs": [
        {
          "indexed": false,
          "internalType": "address",
          "name": "contributor",
          "type": "address"
        },
        {
          "indexed": false,
          "internalType": "uint256",
          "name": "amount",
          "type": "uint256"
        },
        {
          "indexed": false,
          "internalType": "uint256",
          "name": "currentTotal",
          "type": "uint256"
        }
      ],
      "name": "FundReceived",
      "type": "event"
    },
    {
      "inputs": [],
      "name": "amountGoal",
      "outputs": [
        {
          "internalType": "uint256",
          "name": "",
          "type": "uint256"
        }
      ],
      "stateMutability": "view",
      "type": "function"
    },
    {
      "inputs": [],
      "name": "completeAt",
      "outputs": [
        {
          "internalType": "uint256",
          "name": "",
          "type": "uint256"
        }
      ],
      "stateMutability": "view",
      "type": "function"
    },
    {
      "inputs": [
        {
          "internalType": "address",
          "name": "",
          "type": "address"
        }
      ],
      "name": "contributions",
      "outputs": [
        {
          "internalType": "uint256",
          "name": "",
          "type": "uint256"
        }
      ],
      "stateMutability": "view",
      "type": "function"
    },
    {
      "inputs": [],
      "name": "creator",
      "outputs": [
        {
          "internalType": "address payable",
          "name": "",
          "type": "address"
        }
      ],
      "stateMutability": "view",
      "type": "function"
    },
    {
      "inputs": [],
      "name": "currentBalance",
      "outputs": [
        {
          "internalType": "uint256",
          "name": "",
          "type": "uint256"
        }
      ],
      "stateMutability": "view",
      "type": "function"
    },
    {
      "inputs": [],
      "name": "description",
      "outputs": [
        {
          "internalType": "string",
          "name": "",
          "type": "string"
        }
      ],
      "stateMutability": "view",
      "type": "function"
    },
    {
      "inputs": [],
      "name": "raiseBy",
      "outputs": [
        {
          "internalType": "uint256",
          "name": "",
          "type": "uint256"
        }
      ],
      "stateMutability": "view",
      "type": "function"
    },
    {
      "inputs": [],
      "name": "state",
      "outputs": [
        {
          "internalType": "enum Project.State",
          "name": "",
          "type": "uint8"
        }
      ],
      "stateMutability": "view",
      "type": "function"
    },
    {
      "inputs": [],
      "name": "title",
      "outputs": [
        {
          "internalType": "string",
          "name": "",
          "type": "string"
        }
      ],
      "stateMutability": "view",
      "type": "function"
    },
    {
      "inputs": [],
      "name": "contribute",
      "outputs": [],
      "stateMutability": "payable",
      "type": "function"
    },
    {
      "inputs": [],
      "name": "checkIfFundingCompleteOrExpired",
      "outputs": [],
      "stateMutability": "nonpayable",
      "type": "function"
    },
    {
      "inputs": [],
      "name": "getRefund",
      "outputs": [
        {
          "internalType": "bool",
          "name": "",
          "type": "bool"
        }
      ],
      "stateMutability": "nonpayable",
      "type": "function"
    },
    {
      "inputs": [],
      "name": "getInfo",
      "outputs": [
        {
          "internalType": "address payable",
          "name": "projectStarter",
          "type": "address"
        },
        {
          "internalType": "string",
          "name": "projectTitle",
          "type": "string"
        },
        {
          "internalType": "string",
          "name": "projectDesc",
          "type": "string"
        },
        {
          "internalType": "uint256",
          "name": "deadline",
          "type": "uint256"
        },
        {
          "internalType": "enum Project.State",
          "name": "currentState",
          "type": "uint8"
        },
        {
          "internalType": "uint256",
          "name": "currentAmount",
          "type": "uint256"
        },
        {
          "internalType": "uint256",
          "name": "goalAmount",
          "type": "uint256"
        }
      ],
      "stateMutability": "view",
      "type": "function"
    }
  ],
  "bytecode": "0x60806040525f60075f6101000a81548160ff02191690836002811115610028576100276100d8565b5b0217905550348015610038575f80fd5b5060405161186a38038061186a833981810160405281019061005a91906102df565b845f806101000a81548173ffffffffffffffffffffffffffffffffffffffff021916908373ffffffffffffffffffffffffffffffffffffffff16021790555083600590816100a89190610592565b5082600690816100b89190610592565b5080600181905550816004819055505f6003819055505050505050610661565b7f4e487b71000000000000000000000000000000000000000000000000000000005f52602160045260245ffd5b5f604051905090565b5f80fd5b5f80fd5b5f73ffffffffffffffffffffffffffffffffffffffff82169050919050565b5f61013f82610116565b9050919050565b61014f81610135565b8114610159575f80fd5b50565b5f8151905061016a81610146565b92915050565b5f80fd5b5f80fd5b5f601f19601f8301169050919050565b7f4e487b71000000000000000000000000000000000000000000000000000000005f52604160045260245ffd5b6101be82610178565b810181811067ffffffffffffffff821117156101dd576101dc610188565b5b80604052505050565b5f6101ef610105565b90506101fb82826101b5565b919050565b5f67ffffffffffffffff82111561021a57610219610188565b5b61022382610178565b9050602081019050919050565b8281835e5f83830152505050565b5f61025061024b84610200565b6101e6565b90508281526020810184848401111561026c5761026b610174565b5b610277848285610230565b509392505050565b5f82601f83011261029357610292610170565b5b81516102a384826020860161023e565b91505092915050565b5f819050919050565b6102be816102ac565b81146102c8575f80fd5b50565b5f815190506102d9816102b5565b92915050565b5f805f805f60a086880312156102f8576102f761010e565b5b5f6103058882890161015c565b955050602086015167ffffffffffffffff81111561032657610325610112565b5b6103328882890161027f565b945050604086015167ffffffffffffffff81111561035357610352610112565b5b61035f8882890161027f565b9350506060610370888289016102cb565b9250506080610381888289016102cb565b9150509295509295909350565b5f81519050919050565b7f4e487b71000000000000000000000000000000000000000000000000000000005f52602260045260245ffd5b5f60028204905060018216806103dc57607f821691505b6020821081036103ef576103ee610398565b5b50919050565b5f819050815f5260205f209050919050565b5f6020601f8301049050919050565b5f82821b905092915050565b5f600883026104517fffffffffffffffffffffffffffffffffffffffffffffffffffffffffffffffff82610416565b61045b8683610416565b95508019841693508086168417925050509392505050565b5f819050919050565b5f61049661049161048c846102ac565b610473565b6102ac565b9050919050565b5f819050919050565b6104af8361047c565b6104c36104bb8261049d565b848454610422565b825550505050565b5f90565b6104d76104cb565b6104e28184846104a6565b505050565b5b81811015610505576104fa5f826104cf565b6001810190506104e8565b5050565b601f82111561054a5761051b816103f5565b61052484610407565b81016020851015610533578190505b61054761053f85610407565b8301826104e7565b50505b505050565b5f82821c905092915050565b5f61056a5f198460080261054f565b1980831691505092915050565b5f610582838361055b565b9150826002028217905092915050565b61059b8261038e565b67ffffffffffffffff8111156105b4576105b3610188565b5b6105be82546103c5565b6105c9828285610509565b5f60209050601f8311600181146105fa575f84156105e8578287015190505b6105f28582610577565b865550610659565b601f198416610608866103f5565b5f5b8281101561062f5784890151825560018201915060208501945060208101905061060a565b8683101561064c5784890151610648601f89168261055b565b8355505b6001600288020188555050505b505050505050565b6111fc8061066e5f395ff3fe6080604052600436106100c1575f3560e01c80635a9b0b891161007e578063b2d5ae4411610058578063b2d5ae4414610243578063c19d93fb1461026d578063ce845d1d14610297578063d7bb99ba146102c1576100c1565b80635a9b0b89146101d35780637284e4161461020357806386f325861461022d576100c1565b806302d05d3f146100c55780630785001c146100ef57806337f944cc1461011957806342e94c90146101435780634a79d50c1461017f5780634c4cea5a146101a9575b5f80fd5b3480156100d0575f80fd5b506100d96102cb565b6040516100e69190610c27565b60405180910390f35b3480156100fa575f80fd5b506101036102ee565b6040516101109190610c58565b60405180910390f35b348015610124575f80fd5b5061012d6102f4565b60405161013a9190610c58565b60405180910390f35b34801561014e575f80fd5b5061016960048036038101906101649190610cb0565b6102fa565b6040516101769190610c58565b60405180910390f35b34801561018a575f80fd5b5061019361030f565b6040516101a09190610d4b565b60405180910390f35b3480156101b4575f80fd5b506101bd61039b565b6040516101ca9190610c58565b60405180910390f35b3480156101de575f80fd5b506101e76103a1565b6040516101fa9796959493929190610dde565b60405180910390f35b34801561020e575f80fd5b5061021761050a565b6040516102249190610d4b565b60405180910390f35b348015610238575f80fd5b50610241610596565b005b34801561024e575f80fd5b50610257610618565b6040516102649190610e73565b60405180910390f35b348015610278575f80fd5b5061028161086d565b60405161028e9190610e8c565b60405180910390f35b3480156102a2575f80fd5b506102ab61087f565b6040516102b89190610c58565b60405180910390f35b6102c9610885565b005b5f8054906101000a900473ffffffffffffffffffffffffffffffffffffffff1681565b60015481565b60045481565b6008602052805f5260405f205f915090505481565b6005805461031c90610ed2565b80601f016020809104026020016040519081016040528092919081815260200182805461034890610ed2565b80156103935780601f1061036a57610100808354040283529160200191610393565b820191905f5260205f20905b81548152906001019060200180831161037657829003601f168201915b505050505081565b60025481565b5f6060805f805f805f8054906101000a900473ffffffffffffffffffffffffffffffffffffffff169650600580546103d890610ed2565b80601f016020809104026020016040519081016040528092919081815260200182805461040490610ed2565b801561044f5780601f106104265761010080835404028352916020019161044f565b820191905f5260205f20905b81548152906001019060200180831161043257829003601f168201915b505050505095506006805461046390610ed2565b80601f016020809104026020016040519081016040528092919081815260200182805461048f90610ed2565b80156104da5780601f106104b1576101008083540402835291602001916104da565b820191905f5260205f20905b8154815290600101906020018083116104bd57829003601f168201915b50505050509450600454935060075f9054906101000a900460ff1692506003549150600154905090919293949596565b6006805461051790610ed2565b80601f016020809104026020016040519081016040528092919081815260200182805461054390610ed2565b801561058e5780601f106105655761010080835404028352916020019161058e565b820191905f5260205f20905b81548152906001019060200180831161057157829003601f168201915b505050505081565b600154600354106105d957600260075f6101000a81548160ff021916908360028111156105c6576105c5610d6b565b5b02179055506105d3610a3a565b5061060f565b60045442111561060e57600160075f6101000a81548160ff0219169083600281111561060857610607610d6b565b5b02179055505b5b42600281905550565b5f600180600281111561062e5761062d610d6b565b5b60075f9054906101000a900460ff16600281111561064f5761064e610d6b565b5b1461068f576040517f08c379a000000000000000000000000000000000000000000000000000000000815260040161068690610f4c565b60405180910390fd5b5f60085f3373ffffffffffffffffffffffffffffffffffffffff1673ffffffffffffffffffffffffffffffffffffffff1681526020019081526020015f20541161070e576040517f08c379a000000000000000000000000000000000000000000000000000000000815260040161070590610fb4565b60405180910390fd5b5f60085f3373ffffffffffffffffffffffffffffffffffffffff1673ffffffffffffffffffffffffffffffffffffffff1681526020019081526020015f205490505f60085f3373ffffffffffffffffffffffffffffffffffffffff1673ffffffffffffffffffffffffffffffffffffffff1681526020019081526020015f20819055505f3373ffffffffffffffffffffffffffffffffffffffff16826040516107b690610fff565b5f6040518083038185875af1925050503d805f81146107f0576040519150601f19603f3d011682016040523d82523d5f602084013e6107f5565b606091505b505090508061084a578160085f3373ffffffffffffffffffffffffffffffffffffffff1673ffffffffffffffffffffffffffffffffffffffff1681526020019081526020015f20819055505f93505050610869565b8160035f82825461085b9190611040565b925050819055506001935050505b5090565b60075f9054906101000a900460ff1681565b60035481565b5f80600281111561089957610898610d6b565b5b60075f9054906101000a900460ff1660028111156108ba576108b9610d6b565b5b146108fa576040517f08c379a00000000000000000000000000000000000000000000000000000000081526004016108f190610f4c565b60405180910390fd5b5f8054906101000a900473ffffffffffffffffffffffffffffffffffffffff1673ffffffffffffffffffffffffffffffffffffffff163373ffffffffffffffffffffffffffffffffffffffff1603610987576040517f08c379a000000000000000000000000000000000000000000000000000000000815260040161097e906110bd565b60405180910390fd5b3460085f3373ffffffffffffffffffffffffffffffffffffffff1673ffffffffffffffffffffffffffffffffffffffff1681526020019081526020015f205f8282546109d391906110db565b925050819055503460035f8282546109eb91906110db565b925050819055507fb01599268f9e5876866cb213fd68ef71bcc2ffbc5981b15fab922cd59f13b1dd3334600354604051610a279392919061111d565b60405180910390a1610a37610596565b50565b5f6002806002811115610a5057610a4f610d6b565b5b60075f9054906101000a900460ff166002811115610a7157610a70610d6b565b5b14610ab1576040517f08c379a0000000000000000000000000000000000000000000000000000000008152600401610aa890610f4c565b60405180910390fd5b5f60035490505f6003819055505f805f9054906101000a900473ffffffffffffffffffffffffffffffffffffffff1673ffffffffffffffffffffffffffffffffffffffff1682604051610b0390610fff565b5f6040518083038185875af1925050503d805f8114610b3d576040519150601f19603f3d011682016040523d82523d5f602084013e610b42565b606091505b505090508015610bad577f2f256415efc8561af8db667cb242964b19be7380f379ccdafaa0e54a6f6b70695f8054906101000a900473ffffffffffffffffffffffffffffffffffffffff16604051610b9a91906111ad565b60405180910390a1600193505050610be4565b81600381905550600260075f6101000a81548160ff02191690836002811115610bd957610bd8610d6b565b5b02179055505f935050505b5090565b5f73ffffffffffffffffffffffffffffffffffffffff82169050919050565b5f610c1182610be8565b9050919050565b610c2181610c07565b82525050565b5f602082019050610c3a5f830184610c18565b92915050565b5f819050919050565b610c5281610c40565b82525050565b5f602082019050610c6b5f830184610c49565b92915050565b5f80fd5b5f610c7f82610be8565b9050919050565b610c8f81610c75565b8114610c99575f80fd5b50565b5f81359050610caa81610c86565b92915050565b5f60208284031215610cc557610cc4610c71565b5b5f610cd284828501610c9c565b91505092915050565b5f81519050919050565b5f82825260208201905092915050565b8281835e5f83830152505050565b5f601f19601f8301169050919050565b5f610d1d82610cdb565b610d278185610ce5565b9350610d37818560208601610cf5565b610d4081610d03565b840191505092915050565b5f6020820190508181035f830152610d638184610d13565b905092915050565b7f4e487b71000000000000000000000000000000000000000000000000000000005f52602160045260245ffd5b60038110610da957610da8610d6b565b5b50565b5f819050610db982610d98565b919050565b5f610dc882610dac565b9050919050565b610dd881610dbe565b82525050565b5f60e082019050610df15f83018a610c18565b8181036020830152610e038189610d13565b90508181036040830152610e178188610d13565b9050610e266060830187610c49565b610e336080830186610dcf565b610e4060a0830185610c49565b610e4d60c0830184610c49565b98975050505050505050565b5f8115159050919050565b610e6d81610e59565b82525050565b5f602082019050610e865f830184610e64565b92915050565b5f602082019050610e9f5f830184610dcf565b92915050565b7f4e487b71000000000000000000000000000000000000000000000000000000005f52602260045260245ffd5b5f6002820490506001821680610ee957607f821691505b602082108103610efc57610efb610ea5565b5b50919050565b7f496e76616c6964207374617465000000000000000000000000000000000000005f82015250565b5f610f36600d83610ce5565b9150610f4182610f02565b602082019050919050565b5f6020820190508181035f830152610f6381610f2a565b9050919050565b7f4e6f20636f6e747269627574696f6e73000000000000000000000000000000005f82015250565b5f610f9e601083610ce5565b9150610fa982610f6a565b602082019050919050565b5f6020820190508181035f830152610fcb81610f92565b9050919050565b5f81905092915050565b50565b5f610fea5f83610fd2565b9150610ff582610fdc565b5f82019050919050565b5f61100982610fdf565b9150819050919050565b7f4e487b71000000000000000000000000000000000000000000000000000000005f52601160045260245ffd5b5f61104a82610c40565b915061105583610c40565b925082820390508181111561106d5761106c611013565b5b92915050565b7f43726561746f722063616e6e6f7420636f6e74726962757465000000000000005f82015250565b5f6110a7601983610ce5565b91506110b282611073565b602082019050919050565b5f6020820190508181035f8301526110d48161109b565b9050919050565b5f6110e582610c40565b91506110f083610c40565b925082820190508082111561110857611107611013565b5b92915050565b61111781610c75565b82525050565b5f6060820190506111305f83018661110e565b61113d6020830185610c49565b61114a6040830184610c49565b949350505050565b5f819050919050565b5f61117561117061116b84610be8565b611152565b610be8565b9050919050565b5f6111868261115b565b9050919050565b5f6111978261117c565b9050919050565b6111a78161118d565b82525050565b5f6020820190506111c05f83018461119e565b9291505056fea2646970667358221220c3ac12c4ad8f01b01014f08a209adb9d5fa17edca5b08ad73748d5d5cdbd650764736f6c634300081a0033",
  "immutableReferences": {},
  "source": "// SPDX-License-Identifier: MIT\npragma solidity ^0.8.0;\n\ncontract CrowdFunding {\n    Project[] private projects;\n\n    event ProjectStarted(\n        address contractAddress,\n        address projectStarter,\n        string projectTitle,\n        string projectDesc,\n        uint256 deadline,\n        uint256 goalAmount\n    );\n\n    function startProject(\n        string calldata title,\n        string calldata description,\n        uint256 durationInDays,\n        uint256 amountToRaise\n    ) external {\n        uint256 raiseUntil = block.timestamp + durationInDays * 1 days;\n        Project newProject = new Project(\n            payable(msg.sender),\n            title,\n            description,\n            raiseUntil,\n            amountToRaise\n        );\n        projects.push(newProject);\n        emit ProjectStarted(\n            address(newProject),\n            msg.sender,\n            title,\n            description,\n            raiseUntil,\n            amountToRaise\n        );\n    }\n\n    function returnAllProjects() external view returns (Project[] memory) {\n        return projects;\n    }\n}\n\ncontract Project {\n    enum State {\n        Fundraising,\n        Expired,\n        Successful\n    }\n\n    address payable public creator;\n    uint256 public amountGoal;\n    uint256 public completeAt;\n    uint256 public currentBalance;\n    uint256 public raiseBy;\n    string public title;\n    string public description;\n    State public state = State.Fundraising;\n    mapping(address => uint256) public contributions;\n\n    event FundReceived(\n        address contributor,\n        uint256 amount,\n        uint256 currentTotal\n    );\n    event CreatorPaid(address recipient);\n\n    modifier inState(State _state) {\n        require(state == _state, \"Invalid state\");\n        _;\n    }\n\n    modifier isCreator() {\n        require(msg.sender == creator, \"Not the creator\");\n        _;\n    }\n\n    constructor(\n        address payable projectStarter,\n        string memory projectTitle,\n        string memory projectDesc,\n        uint256 fundRaisingDeadline,\n        uint256 goalAmount\n    ) {\n        creator = projectStarter;\n        title = projectTitle;\n        description = projectDesc;\n        amountGoal = goalAmount;\n        raiseBy = fundRaisingDeadline;\n        currentBalance = 0;\n    }\n\n    function contribute() external payable inState(State.Fundraising) {\n        require(msg.sender != creator, \"Creator cannot contribute\");\n        contributions[msg.sender] += msg.value;\n        currentBalance += msg.value;\n        emit FundReceived(msg.sender, msg.value, currentBalance);\n        checkIfFundingCompleteOrExpired();\n    }\n\n    function checkIfFundingCompleteOrExpired() public {\n        if (currentBalance >= amountGoal) {\n            state = State.Successful;\n            payOut();\n        } else if (block.timestamp > raiseBy) {\n            state = State.Expired;\n        }\n        completeAt = block.timestamp;\n    }\n\n    function payOut() internal inState(State.Successful) returns (bool) {\n        uint256 totalRaised = currentBalance;\n        currentBalance = 0;\n\n        (bool success, ) = creator.call{value: totalRaised}(\"\");\n        if (success) {\n            emit CreatorPaid(creator);\n            return true;\n        } else {\n            currentBalance = totalRaised;\n            state = State.Successful;\n        }\n\n        return false;\n    }\n\n    function getRefund() public inState(State.Expired) returns (bool) {\n        require(contributions[msg.sender] > 0, \"No contributions\");\n\n        uint256 amountToRefund = contributions[msg.sender];\n        contributions[msg.sender] = 0;\n\n        (bool success, ) = msg.sender.call{value: amountToRefund}(\"\");\n        if (!success) {\n            contributions[msg.sender] = amountToRefund;\n            return false;\n        } else {\n            currentBalance -= amountToRefund;\n        }\n\n        return true;\n    }\n\n    function getInfo()\n        public\n        view\n        returns (\n            address payable projectStarter,\n            string memory projectTitle,\n            string memory projectDesc,\n            uint256 deadline,\n            State currentState,\n            uint256 currentAmount,\n            uint256 goalAmount\n        )\n    {\n        projectStarter = creator;\n        projectTitle = title;\n        projectDesc = description;\n        deadline = raiseBy;\n        currentState = state;\n        currentAmount = currentBalance;\n        goalAmount = amountGoal;\n    }\n}",
  "sourcePath": "/Users/akhilshettym/Desktop/Crowd/crowdfunding/contracts/CrowdFunding.sol",
  "compiler": {
    "name": "solc",
    "version": "0.8.26+commit.8a97fa7a.Emscripten.clang"
  },
  "schemaVersion": "3.4.16",
  "updatedAt": "2024-07-29T12:49:49.447Z",
  "devdoc": {
    "kind": "dev",
    "methods": {},
    "version": 1
  },
  "userdoc": {
    "kind": "user",
    "methods": {},
    "version": 1
  }
}