{
  "contractName": "Project",
  "abi": [
    {
      "inputs": [
        {
          "internalType": "address payable",
          "name": "projectStarter",
          "type": "address"
        },
        {
          "internalType": "string",
          "name": "projectTitle",
          "type": "string"
        },
        {
          "internalType": "string",
          "name": "projectDesc",
          "type": "string"
        },
        {
          "internalType": "uint256",
          "name": "fundRaisingDeadline",
          "type": "uint256"
        },
        {
          "internalType": "uint256",
          "name": "goalAmount",
          "type": "uint256"
        }
      ],
      "stateMutability": "nonpayable",
      "type": "constructor"
    },
    {
      "anonymous": false,
      "inputs": [
        {
          "indexed": false,
          "internalType": "address",
          "name": "recipient",
          "type": "address"
        }
      ],
      "name": "CreatorPaid",
      "type": "event"
    },
    {
      "anonymous": false,
      "inputs": [
        {
          "indexed": false,
          "internalType": "address",
          "name": "contributor",
          "type": "address"
        },
        {
          "indexed": false,
          "internalType": "uint256",
          "name": "amount",
          "type": "uint256"
        },
        {
          "indexed": false,
          "internalType": "uint256",
          "name": "currentTotal",
          "type": "uint256"
        }
      ],
      "name": "FundReceived",
      "type": "event"
    },
    {
      "inputs": [],
      "name": "amountGoal",
      "outputs": [
        {
          "internalType": "uint256",
          "name": "",
          "type": "uint256"
        }
      ],
      "stateMutability": "view",
      "type": "function"
    },
    {
      "inputs": [],
      "name": "completeAt",
      "outputs": [
        {
          "internalType": "uint256",
          "name": "",
          "type": "uint256"
        }
      ],
      "stateMutability": "view",
      "type": "function"
    },
    {
      "inputs": [
        {
          "internalType": "address",
          "name": "",
          "type": "address"
        }
      ],
      "name": "contributions",
      "outputs": [
        {
          "internalType": "uint256",
          "name": "",
          "type": "uint256"
        }
      ],
      "stateMutability": "view",
      "type": "function"
    },
    {
      "inputs": [],
      "name": "creator",
      "outputs": [
        {
          "internalType": "address payable",
          "name": "",
          "type": "address"
        }
      ],
      "stateMutability": "view",
      "type": "function"
    },
    {
      "inputs": [],
      "name": "currentBalance",
      "outputs": [
        {
          "internalType": "uint256",
          "name": "",
          "type": "uint256"
        }
      ],
      "stateMutability": "view",
      "type": "function"
    },
    {
      "inputs": [],
      "name": "description",
      "outputs": [
        {
          "internalType": "string",
          "name": "",
          "type": "string"
        }
      ],
      "stateMutability": "view",
      "type": "function"
    },
    {
      "inputs": [],
      "name": "raiseBy",
      "outputs": [
        {
          "internalType": "uint256",
          "name": "",
          "type": "uint256"
        }
      ],
      "stateMutability": "view",
      "type": "function"
    },
    {
      "inputs": [],
      "name": "state",
      "outputs": [
        {
          "internalType": "enum Project.State",
          "name": "",
          "type": "uint8"
        }
      ],
      "stateMutability": "view",
      "type": "function"
    },
    {
      "inputs": [],
      "name": "title",
      "outputs": [
        {
          "internalType": "string",
          "name": "",
          "type": "string"
        }
      ],
      "stateMutability": "view",
      "type": "function"
    },
    {
      "inputs": [],
      "name": "contribute",
      "outputs": [],
      "stateMutability": "payable",
      "type": "function"
    },
    {
      "inputs": [],
      "name": "checkIfFundingCompleteOrExpired",
      "outputs": [],
      "stateMutability": "nonpayable",
      "type": "function"
    },
    {
      "inputs": [],
      "name": "getRefund",
      "outputs": [
        {
          "internalType": "bool",
          "name": "",
          "type": "bool"
        }
      ],
      "stateMutability": "nonpayable",
      "type": "function"
    },
    {
      "inputs": [],
      "name": "getInfo",
      "outputs": [
        {
          "internalType": "address payable",
          "name": "projectStarter",
          "type": "address"
        },
        {
          "internalType": "string",
          "name": "projectTitle",
          "type": "string"
        },
        {
          "internalType": "string",
          "name": "projectDesc",
          "type": "string"
        },
        {
          "internalType": "uint256",
          "name": "deadline",
          "type": "uint256"
        },
        {
          "internalType": "enum Project.State",
          "name": "currentState",
          "type": "uint8"
        },
        {
          "internalType": "uint256",
          "name": "currentAmount",
          "type": "uint256"
        },
        {
          "internalType": "uint256",
          "name": "goalAmount",
          "type": "uint256"
        }
      ],
      "stateMutability": "view",
      "type": "function"
    }
  ],
  "bytecode": "0x60806040526000600760006101000a81548160ff0219169083600281111562000051577f4e487b7100000000000000000000000000000000000000000000000000000000600052602160045260246000fd5b02179055503480156200006357600080fd5b50604051620018a1380380620018a183398181016040528101906200008991906200026c565b846000806101000a81548173ffffffffffffffffffffffffffffffffffffffff021916908373ffffffffffffffffffffffffffffffffffffffff1602179055508360059080519060200190620000e19291906200011c565b508260069080519060200190620000fa9291906200011c565b50806001819055508160048190555060006003819055505050505050620004c3565b8280546200012a90620003fb565b90600052602060002090601f0160209004810192826200014e57600085556200019a565b82601f106200016957805160ff19168380011785556200019a565b828001600101855582156200019a579182015b82811115620001995782518255916020019190600101906200017c565b5b509050620001a99190620001ad565b5090565b5b80821115620001c8576000816000905550600101620001ae565b5090565b6000620001e3620001dd8462000354565b62000320565b905082815260208101848484011115620001fc57600080fd5b62000209848285620003c5565b509392505050565b60008151905062000222816200048f565b92915050565b600082601f8301126200023a57600080fd5b81516200024c848260208601620001cc565b91505092915050565b6000815190506200026681620004a9565b92915050565b600080600080600060a086880312156200028557600080fd5b6000620002958882890162000211565b955050602086015167ffffffffffffffff811115620002b357600080fd5b620002c18882890162000228565b945050604086015167ffffffffffffffff811115620002df57600080fd5b620002ed8882890162000228565b9350506060620003008882890162000255565b9250506080620003138882890162000255565b9150509295509295909350565b6000604051905081810181811067ffffffffffffffff821117156200034a576200034962000460565b5b8060405250919050565b600067ffffffffffffffff82111562000372576200037162000460565b5b601f19601f8301169050602081019050919050565b600062000394826200039b565b9050919050565b600073ffffffffffffffffffffffffffffffffffffffff82169050919050565b6000819050919050565b60005b83811015620003e5578082015181840152602081019050620003c8565b83811115620003f5576000848401525b50505050565b600060028204905060018216806200041457607f821691505b602082108114156200042b576200042a62000431565b5b50919050565b7f4e487b7100000000000000000000000000000000000000000000000000000000600052602260045260246000fd5b7f4e487b7100000000000000000000000000000000000000000000000000000000600052604160045260246000fd5b6200049a8162000387565b8114620004a657600080fd5b50565b620004b481620003bb565b8114620004c057600080fd5b50565b6113ce80620004d36000396000f3fe6080604052600436106100c25760003560e01c80635a9b0b891161007f578063b2d5ae4411610059578063b2d5ae441461024e578063c19d93fb14610279578063ce845d1d146102a4578063d7bb99ba146102cf576100c2565b80635a9b0b89146101db5780637284e4161461020c57806386f3258614610237576100c2565b806302d05d3f146100c75780630785001c146100f257806337f944cc1461011d57806342e94c90146101485780634a79d50c146101855780634c4cea5a146101b0575b600080fd5b3480156100d357600080fd5b506100dc6102d9565b6040516100e99190610f62565b60405180910390f35b3480156100fe57600080fd5b506101076102fd565b60405161011491906110e9565b60405180910390f35b34801561012957600080fd5b50610132610303565b60405161013f91906110e9565b60405180910390f35b34801561015457600080fd5b5061016f600480360381019061016a9190610d9c565b610309565b60405161017c91906110e9565b60405180910390f35b34801561019157600080fd5b5061019a610321565b6040516101a79190611067565b60405180910390f35b3480156101bc57600080fd5b506101c56103af565b6040516101d291906110e9565b60405180910390f35b3480156101e757600080fd5b506101f06103b5565b6040516102039796959493929190610f7d565b60405180910390f35b34801561021857600080fd5b50610221610527565b60405161022e9190611067565b60405180910390f35b34801561024357600080fd5b5061024c6105b5565b005b34801561025a57600080fd5b50610263610685565b6040516102709190611031565b60405180910390f35b34801561028557600080fd5b5061028e610939565b60405161029b919061104c565b60405180910390f35b3480156102b057600080fd5b506102b961094c565b6040516102c691906110e9565b60405180910390f35b6102d7610952565b005b60008054906101000a900473ffffffffffffffffffffffffffffffffffffffff1681565b60015481565b60045481565b60086020528060005260406000206000915090505481565b6005805461032e9061129d565b80601f016020809104026020016040519081016040528092919081815260200182805461035a9061129d565b80156103a75780601f1061037c576101008083540402835291602001916103a7565b820191906000526020600020905b81548152906001019060200180831161038a57829003601f168201915b505050505081565b60025481565b600060608060008060008060008054906101000a900473ffffffffffffffffffffffffffffffffffffffff169650600580546103f09061129d565b80601f016020809104026020016040519081016040528092919081815260200182805461041c9061129d565b80156104695780601f1061043e57610100808354040283529160200191610469565b820191906000526020600020905b81548152906001019060200180831161044c57829003601f168201915b505050505095506006805461047d9061129d565b80601f01602080910402602001604051908101604052809291908181526020018280546104a99061129d565b80156104f65780601f106104cb576101008083540402835291602001916104f6565b820191906000526020600020905b8154815290600101906020018083116104d957829003601f168201915b505050505094506004549350600760009054906101000a900460ff1692506003549150600154905090919293949596565b600680546105349061129d565b80601f01602080910402602001604051908101604052809291908181526020018280546105609061129d565b80156105ad5780601f10610582576101008083540402835291602001916105ad565b820191906000526020600020905b81548152906001019060200180831161059057829003601f168201915b505050505081565b6001546003541061061f576002600760006101000a81548160ff0219169083600281111561060c577f4e487b7100000000000000000000000000000000000000000000000000000000600052602160045260246000fd5b0217905550610619610b5b565b5061067c565b60045442111561067b576001600760006101000a81548160ff02191690836002811115610675577f4e487b7100000000000000000000000000000000000000000000000000000000600052602160045260246000fd5b02179055505b5b42600281905550565b600060018060028111156106c2577f4e487b7100000000000000000000000000000000000000000000000000000000600052602160045260246000fd5b600760009054906101000a900460ff16600281111561070a577f4e487b7100000000000000000000000000000000000000000000000000000000600052602160045260246000fd5b1461074a576040517f08c379a000000000000000000000000000000000000000000000000000000000815260040161074190611089565b60405180910390fd5b6000600860003373ffffffffffffffffffffffffffffffffffffffff1673ffffffffffffffffffffffffffffffffffffffff16815260200190815260200160002054116107cc576040517f08c379a00000000000000000000000000000000000000000000000000000000081526004016107c3906110c9565b60405180910390fd5b6000600860003373ffffffffffffffffffffffffffffffffffffffff1673ffffffffffffffffffffffffffffffffffffffff1681526020019081526020016000205490506000600860003373ffffffffffffffffffffffffffffffffffffffff1673ffffffffffffffffffffffffffffffffffffffff1681526020019081526020016000208190555060003373ffffffffffffffffffffffffffffffffffffffff168260405161087b90610f32565b60006040518083038185875af1925050503d80600081146108b8576040519150601f19603f3d011682016040523d82523d6000602084013e6108bd565b606091505b50509050806109155781600860003373ffffffffffffffffffffffffffffffffffffffff1673ffffffffffffffffffffffffffffffffffffffff16815260200190815260200160002081905550600093505050610935565b81600360008282546109279190611181565b925050819055506001935050505b5090565b600760009054906101000a900460ff1681565b60035481565b600080600281111561098d577f4e487b7100000000000000000000000000000000000000000000000000000000600052602160045260246000fd5b600760009054906101000a900460ff1660028111156109d5577f4e487b7100000000000000000000000000000000000000000000000000000000600052602160045260246000fd5b14610a15576040517f08c379a0000000000000000000000000000000000000000000000000000000008152600401610a0c90611089565b60405180910390fd5b60008054906101000a900473ffffffffffffffffffffffffffffffffffffffff1673ffffffffffffffffffffffffffffffffffffffff163373ffffffffffffffffffffffffffffffffffffffff161415610aa4576040517f08c379a0000000000000000000000000000000000000000000000000000000008152600401610a9b906110a9565b60405180910390fd5b34600860003373ffffffffffffffffffffffffffffffffffffffff1673ffffffffffffffffffffffffffffffffffffffff1681526020019081526020016000206000828254610af3919061112b565b925050819055503460036000828254610b0c919061112b565b925050819055507fb01599268f9e5876866cb213fd68ef71bcc2ffbc5981b15fab922cd59f13b1dd3334600354604051610b4893929190610ffa565b60405180910390a1610b586105b5565b50565b60006002806002811115610b98577f4e487b7100000000000000000000000000000000000000000000000000000000600052602160045260246000fd5b600760009054906101000a900460ff166002811115610be0577f4e487b7100000000000000000000000000000000000000000000000000000000600052602160045260246000fd5b14610c20576040517f08c379a0000000000000000000000000000000000000000000000000000000008152600401610c1790611089565b60405180910390fd5b60006003549050600060038190555060008060009054906101000a900473ffffffffffffffffffffffffffffffffffffffff1673ffffffffffffffffffffffffffffffffffffffff1682604051610c7690610f32565b60006040518083038185875af1925050503d8060008114610cb3576040519150601f19603f3d011682016040523d82523d6000602084013e610cb8565b606091505b505090508015610d24577f2f256415efc8561af8db667cb242964b19be7380f379ccdafaa0e54a6f6b706960008054906101000a900473ffffffffffffffffffffffffffffffffffffffff16604051610d119190610f47565b60405180910390a1600193505050610d83565b816003819055506002600760006101000a81548160ff02191690836002811115610d77577f4e487b7100000000000000000000000000000000000000000000000000000000600052602160045260246000fd5b02179055506000935050505b5090565b600081359050610d9681611381565b92915050565b600060208284031215610dae57600080fd5b6000610dbc84828501610d87565b91505092915050565b610dce81611222565b82525050565b610ddd816111c7565b82525050565b610dec816111b5565b82525050565b610dfb816111d9565b82525050565b610e0a81611234565b82525050565b6000610e1b82611104565b610e25818561111a565b9350610e3581856020860161126a565b610e3e8161135c565b840191505092915050565b6000610e56600d8361111a565b91507f496e76616c6964207374617465000000000000000000000000000000000000006000830152602082019050919050565b6000610e9660198361111a565b91507f43726561746f722063616e6e6f7420636f6e74726962757465000000000000006000830152602082019050919050565b6000610ed660008361110f565b9150600082019050919050565b6000610ef060108361111a565b91507f4e6f20636f6e747269627574696f6e73000000000000000000000000000000006000830152602082019050919050565b610f2c81611218565b82525050565b6000610f3d82610ec9565b9150819050919050565b6000602082019050610f5c6000830184610dc5565b92915050565b6000602082019050610f776000830184610dd4565b92915050565b600060e082019050610f92600083018a610dd4565b8181036020830152610fa48189610e10565b90508181036040830152610fb88188610e10565b9050610fc76060830187610f23565b610fd46080830186610e01565b610fe160a0830185610f23565b610fee60c0830184610f23565b98975050505050505050565b600060608201905061100f6000830186610de3565b61101c6020830185610f23565b6110296040830184610f23565b949350505050565b60006020820190506110466000830184610df2565b92915050565b60006020820190506110616000830184610e01565b92915050565b600060208201905081810360008301526110818184610e10565b905092915050565b600060208201905081810360008301526110a281610e49565b9050919050565b600060208201905081810360008301526110c281610e89565b9050919050565b600060208201905081810360008301526110e281610ee3565b9050919050565b60006020820190506110fe6000830184610f23565b92915050565b600081519050919050565b600081905092915050565b600082825260208201905092915050565b600061113682611218565b915061114183611218565b9250827fffffffffffffffffffffffffffffffffffffffffffffffffffffffffffffffff03821115611176576111756112cf565b5b828201905092915050565b600061118c82611218565b915061119783611218565b9250828210156111aa576111a96112cf565b5b828203905092915050565b60006111c0826111f8565b9050919050565b60006111d2826111f8565b9050919050565b60008115159050919050565b60008190506111f38261136d565b919050565b600073ffffffffffffffffffffffffffffffffffffffff82169050919050565b6000819050919050565b600061122d82611246565b9050919050565b600061123f826111e5565b9050919050565b600061125182611258565b9050919050565b6000611263826111f8565b9050919050565b60005b8381101561128857808201518184015260208101905061126d565b83811115611297576000848401525b50505050565b600060028204905060018216806112b557607f821691505b602082108114156112c9576112c861132d565b5b50919050565b7f4e487b7100000000000000000000000000000000000000000000000000000000600052601160045260246000fd5b7f4e487b7100000000000000000000000000000000000000000000000000000000600052602160045260246000fd5b7f4e487b7100000000000000000000000000000000000000000000000000000000600052602260045260246000fd5b6000601f19601f8301169050919050565b6003811061137e5761137d6112fe565b5b50565b61138a816111b5565b811461139557600080fd5b5056fea2646970667358221220c29637f6ce935d9d49fe4a799c9b82de0bd7ec2ba276acbe2fea67b78f395eba64736f6c63430008000033",
  "immutableReferences": {},
  "source": "// SPDX-License-Identifier: MIT\npragma solidity ^0.8.0;\n\ncontract CrowdFunding {\n    // List of existing projects\n    Project[] private projects;\n\n    // Event that will be emitted whenever a new project is started\n    event ProjectStarted(\n        address contractAddress,\n        address projectStarter,\n        string projectTitle,\n        string projectDesc,\n        uint256 deadline,\n        uint256 goalAmount\n    );\n\n    /** @dev Function to start a new project.\n     * @param title Title of the project to be created\n     * @param description Brief description about the project\n     * @param durationInDays Project deadline in days\n     * @param amountToRaise Project goal in wei\n     */\n    function startProject(\n        string calldata title,\n        string calldata description,\n        uint256 durationInDays,\n        uint256 amountToRaise\n    ) external {\n        uint256 raiseUntil = block.timestamp + durationInDays * 1 days;\n        Project newProject = new Project(\n            payable(msg.sender),\n            title,\n            description,\n            raiseUntil,\n            amountToRaise\n        );\n        projects.push(newProject);\n        emit ProjectStarted(\n            address(newProject),\n            msg.sender,\n            title,\n            description,\n            raiseUntil,\n            amountToRaise\n        );\n    }\n\n    /** @dev Function to get all projects' contract addresses.\n     * @return A list of all projects' contract addresses\n     */\n    function returnAllProjects() external view returns (Project[] memory) {\n        return projects;\n    }\n}\n\ncontract Project {\n    // Data structures\n    enum State {\n        Fundraising,\n        Expired,\n        Successful\n    }\n\n    // State variables\n    address payable public creator;\n    uint256 public amountGoal; // required to reach at least this much, else everyone gets refund\n    uint256 public completeAt;\n    uint256 public currentBalance;\n    uint256 public raiseBy;\n    string public title;\n    string public description;\n    State public state = State.Fundraising; // initialize on create\n    mapping(address => uint256) public contributions;\n\n    // Event that will be emitted whenever funding will be received\n    event FundReceived(\n        address contributor,\n        uint256 amount,\n        uint256 currentTotal\n    );\n    // Event that will be emitted whenever the project starter has received the funds\n    event CreatorPaid(address recipient);\n\n    // Modifier to check current state\n    modifier inState(State _state) {\n        require(state == _state, \"Invalid state\");\n        _;\n    }\n\n    // Modifier to check if the function caller is the project creator\n    modifier isCreator() {\n        require(msg.sender == creator, \"Not the creator\");\n        _;\n    }\n\n    constructor(\n        address payable projectStarter,\n        string memory projectTitle,\n        string memory projectDesc,\n        uint256 fundRaisingDeadline,\n        uint256 goalAmount\n    ) {\n        creator = projectStarter;\n        title = projectTitle;\n        description = projectDesc;\n        amountGoal = goalAmount;\n        raiseBy = fundRaisingDeadline;\n        currentBalance = 0;\n    }\n\n    /** @dev Function to fund a certain project.\n     */\n    function contribute() external payable inState(State.Fundraising) {\n        require(msg.sender != creator, \"Creator cannot contribute\");\n        contributions[msg.sender] += msg.value;\n        currentBalance += msg.value;\n        emit FundReceived(msg.sender, msg.value, currentBalance);\n        checkIfFundingCompleteOrExpired();\n    }\n\n    /** @dev Function to change the project state depending on conditions.\n     */\n    function checkIfFundingCompleteOrExpired() public {\n        if (currentBalance >= amountGoal) {\n            state = State.Successful;\n            payOut();\n        } else if (block.timestamp > raiseBy) {\n            state = State.Expired;\n        }\n        completeAt = block.timestamp;\n    }\n\n    /** @dev Function to give the received funds to project starter.\n     */\n    function payOut() internal inState(State.Successful) returns (bool) {\n        uint256 totalRaised = currentBalance;\n        currentBalance = 0;\n\n        (bool success, ) = creator.call{value: totalRaised}(\"\");\n        if (success) {\n            emit CreatorPaid(creator);\n            return true;\n        } else {\n            currentBalance = totalRaised;\n            state = State.Successful;\n        }\n\n        return false;\n    }\n\n    /** @dev Function to retrieve donated amount when a project expires.\n     */\n    function getRefund() public inState(State.Expired) returns (bool) {\n        require(contributions[msg.sender] > 0, \"No contributions\");\n\n        uint256 amountToRefund = contributions[msg.sender];\n        contributions[msg.sender] = 0;\n\n        (bool success, ) = msg.sender.call{value: amountToRefund}(\"\");\n        if (!success) {\n            contributions[msg.sender] = amountToRefund;\n            return false;\n        } else {\n            currentBalance -= amountToRefund;\n        }\n\n        return true;\n    }\n    function getInfo()\n        public\n        view\n        returns (\n            address payable projectStarter,\n            string memory projectTitle,\n            string memory projectDesc,\n            uint256 deadline,\n            State currentState,\n            uint256 currentAmount,\n            uint256 goalAmount\n        )\n    {\n        projectStarter = creator;\n        projectTitle = title;\n        projectDesc = description;\n        deadline = raiseBy;\n        currentState = state;\n        currentAmount = currentBalance;\n        goalAmount = amountGoal;\n    }\n}\n",
  "sourcePath": "/Users/akhilshettym/Desktop/Crowd/crowdfunding/contracts/CrowdFunding.sol",
  "compiler": {
    "name": "solc",
    "version": "0.8.0+commit.c7dfd78e.Emscripten.clang"
  },
  "schemaVersion": "3.4.16",
  "updatedAt": "2024-07-29T13:10:42.611Z",
  "devdoc": {
    "kind": "dev",
    "methods": {
      "checkIfFundingCompleteOrExpired()": {
        "details": "Function to change the project state depending on conditions."
      },
      "contribute()": {
        "details": "Function to fund a certain project."
      },
      "getRefund()": {
        "details": "Function to retrieve donated amount when a project expires."
      }
    },
    "version": 1
  },
  "userdoc": {
    "kind": "user",
    "methods": {},
    "version": 1
  }
}